{
    "contractName": "RampService",
    "abi": [
        {
            "inputs": [],
            "stateMutability": "nonpayable",
            "type": "constructor"
        },
        {
            "anonymous": false,
            "inputs": [
                {
                    "indexed": false,
                    "internalType": "address",
                    "name": "token",
                    "type": "address"
                },
                {
                    "indexed": false,
                    "internalType": "uint256",
                    "name": "amount",
                    "type": "uint256"
                },
                {
                    "indexed": false,
                    "internalType": "string",
                    "name": "txid",
                    "type": "string"
                }
            ],
            "name": "Purchased",
            "type": "event"
        },
        {
            "anonymous": false,
            "inputs": [
                {
                    "indexed": true,
                    "internalType": "bytes32",
                    "name": "role",
                    "type": "bytes32"
                },
                {
                    "indexed": true,
                    "internalType": "bytes32",
                    "name": "previousAdminRole",
                    "type": "bytes32"
                },
                {
                    "indexed": true,
                    "internalType": "bytes32",
                    "name": "newAdminRole",
                    "type": "bytes32"
                }
            ],
            "name": "RoleAdminChanged",
            "type": "event"
        },
        {
            "anonymous": false,
            "inputs": [
                {
                    "indexed": true,
                    "internalType": "bytes32",
                    "name": "role",
                    "type": "bytes32"
                },
                {
                    "indexed": true,
                    "internalType": "address",
                    "name": "account",
                    "type": "address"
                },
                {
                    "indexed": true,
                    "internalType": "address",
                    "name": "sender",
                    "type": "address"
                }
            ],
            "name": "RoleGranted",
            "type": "event"
        },
        {
            "anonymous": false,
            "inputs": [
                {
                    "indexed": true,
                    "internalType": "bytes32",
                    "name": "role",
                    "type": "bytes32"
                },
                {
                    "indexed": true,
                    "internalType": "address",
                    "name": "account",
                    "type": "address"
                },
                {
                    "indexed": true,
                    "internalType": "address",
                    "name": "sender",
                    "type": "address"
                }
            ],
            "name": "RoleRevoked",
            "type": "event"
        },
        {
            "anonymous": false,
            "inputs": [
                {
                    "indexed": false,
                    "internalType": "address",
                    "name": "token",
                    "type": "address"
                },
                {
                    "indexed": false,
                    "internalType": "uint256",
                    "name": "amount",
                    "type": "uint256"
                },
                {
                    "indexed": false,
                    "internalType": "address",
                    "name": "receiver",
                    "type": "address"
                },
                {
                    "indexed": false,
                    "internalType": "string",
                    "name": "txid",
                    "type": "string"
                }
            ],
            "name": "Sold",
            "type": "event"
        },
        {
            "anonymous": false,
            "inputs": [
                {
                    "indexed": false,
                    "internalType": "address",
                    "name": "token",
                    "type": "address"
                },
                {
                    "indexed": false,
                    "internalType": "uint256",
                    "name": "amount",
                    "type": "uint256"
                },
                {
                    "indexed": false,
                    "internalType": "uint256[]",
                    "name": "amounts",
                    "type": "uint256[]"
                },
                {
                    "indexed": false,
                    "internalType": "address",
                    "name": "receiver",
                    "type": "address"
                },
                {
                    "indexed": false,
                    "internalType": "string",
                    "name": "txid",
                    "type": "string"
                }
            ],
            "name": "SwapAndSold",
            "type": "event"
        },
        {
            "inputs": [],
            "name": "ADMIN_ROLE",
            "outputs": [
                {
                    "internalType": "bytes32",
                    "name": "",
                    "type": "bytes32"
                }
            ],
            "stateMutability": "view",
            "type": "function"
        },
        {
            "inputs": [],
            "name": "DEFAULT_ADMIN_ROLE",
            "outputs": [
                {
                    "internalType": "bytes32",
                    "name": "",
                    "type": "bytes32"
                }
            ],
            "stateMutability": "view",
            "type": "function"
        },
        {
            "inputs": [],
            "name": "OWNER_ROLE",
            "outputs": [
                {
                    "internalType": "bytes32",
                    "name": "",
                    "type": "bytes32"
                }
            ],
            "stateMutability": "view",
            "type": "function"
        },
        {
            "inputs": [],
            "name": "SUPER_ADMIN_ROLE",
            "outputs": [
                {
                    "internalType": "bytes32",
                    "name": "",
                    "type": "bytes32"
                }
            ],
            "stateMutability": "view",
            "type": "function"
        },
        {
            "inputs": [
                {
                    "internalType": "address",
                    "name": "",
                    "type": "address"
                }
            ],
            "name": "addressBook",
            "outputs": [
                {
                    "internalType": "bool",
                    "name": "",
                    "type": "bool"
                }
            ],
            "stateMutability": "view",
            "type": "function"
        },
        {
            "inputs": [],
            "name": "balance",
            "outputs": [
                {
                    "internalType": "uint256",
                    "name": "",
                    "type": "uint256"
                }
            ],
            "stateMutability": "view",
            "type": "function"
        },
        {
            "inputs": [
                {
                    "internalType": "address payable",
                    "name": "receiver",
                    "type": "address"
                },
                {
                    "internalType": "address",
                    "name": "token",
                    "type": "address"
                },
                {
                    "internalType": "uint256",
                    "name": "amount",
                    "type": "uint256"
                },
                {
                    "internalType": "string",
                    "name": "txId",
                    "type": "string"
                },
                {
                    "internalType": "uint8",
                    "name": "v",
                    "type": "uint8"
                },
                {
                    "internalType": "bytes32",
                    "name": "r",
                    "type": "bytes32"
                },
                {
                    "internalType": "bytes32",
                    "name": "s",
                    "type": "bytes32"
                }
            ],
            "name": "buy",
            "outputs": [],
            "stateMutability": "nonpayable",
            "type": "function"
        },
        {
            "inputs": [
                {
                    "internalType": "address",
                    "name": "receiver",
                    "type": "address"
                },
                {
                    "internalType": "address[]",
                    "name": "path",
                    "type": "address[]"
                },
                {
                    "internalType": "uint256",
                    "name": "amount",
                    "type": "uint256"
                },
                {
                    "internalType": "uint256",
                    "name": "minAmountOut",
                    "type": "uint256"
                },
                {
                    "internalType": "string",
                    "name": "txId",
                    "type": "string"
                },
                {
                    "internalType": "uint8",
                    "name": "v",
                    "type": "uint8"
                },
                {
                    "internalType": "bytes32",
                    "name": "r",
                    "type": "bytes32"
                },
                {
                    "internalType": "bytes32",
                    "name": "s",
                    "type": "bytes32"
                }
            ],
            "name": "buyBySwap",
            "outputs": [],
            "stateMutability": "nonpayable",
            "type": "function"
        },
        {
            "inputs": [
                {
                    "internalType": "string",
                    "name": "",
                    "type": "string"
                },
                {
                    "internalType": "address",
                    "name": "",
                    "type": "address"
                }
            ],
            "name": "buyTx",
            "outputs": [
                {
                    "internalType": "uint256",
                    "name": "",
                    "type": "uint256"
                }
            ],
            "stateMutability": "view",
            "type": "function"
        },
        {
            "inputs": [],
            "name": "domainSeparator",
            "outputs": [
                {
                    "internalType": "bytes32",
                    "name": "",
                    "type": "bytes32"
                }
            ],
            "stateMutability": "view",
            "type": "function"
        },
        {
            "inputs": [
                {
                    "internalType": "address",
                    "name": "token",
                    "type": "address"
                },
                {
                    "internalType": "uint256",
                    "name": "amount",
                    "type": "uint256"
                },
                {
                    "internalType": "address payable",
                    "name": "receiver",
                    "type": "address"
                }
            ],
            "name": "forceTransfer",
            "outputs": [
                {
                    "internalType": "bool",
                    "name": "",
                    "type": "bool"
                }
            ],
            "stateMutability": "nonpayable",
            "type": "function"
        },
        {
            "inputs": [
                {
                    "internalType": "bytes32",
                    "name": "role",
                    "type": "bytes32"
                }
            ],
            "name": "getRoleAdmin",
            "outputs": [
                {
                    "internalType": "bytes32",
                    "name": "",
                    "type": "bytes32"
                }
            ],
            "stateMutability": "view",
            "type": "function"
        },
        {
            "inputs": [
                {
                    "internalType": "bytes32",
                    "name": "role",
                    "type": "bytes32"
                },
                {
                    "internalType": "address",
                    "name": "account",
                    "type": "address"
                }
            ],
            "name": "grantRole",
            "outputs": [],
            "stateMutability": "nonpayable",
            "type": "function"
        },
        {
            "inputs": [
                {
                    "internalType": "bytes32",
                    "name": "role",
                    "type": "bytes32"
                },
                {
                    "internalType": "address",
                    "name": "account",
                    "type": "address"
                }
            ],
            "name": "hasRole",
            "outputs": [
                {
                    "internalType": "bool",
                    "name": "",
                    "type": "bool"
                }
            ],
            "stateMutability": "view",
            "type": "function"
        },
        {
            "inputs": [
                {
                    "internalType": "bytes32",
                    "name": "role",
                    "type": "bytes32"
                },
                {
                    "internalType": "address",
                    "name": "account",
                    "type": "address"
                }
            ],
            "name": "renounceRole",
            "outputs": [],
            "stateMutability": "nonpayable",
            "type": "function"
        },
        {
            "inputs": [
                {
                    "internalType": "bytes32",
                    "name": "role",
                    "type": "bytes32"
                },
                {
                    "internalType": "address",
                    "name": "account",
                    "type": "address"
                }
            ],
            "name": "revokeRole",
            "outputs": [],
            "stateMutability": "nonpayable",
            "type": "function"
        },
        {
            "inputs": [],
            "name": "router",
            "outputs": [
                {
                    "internalType": "address",
                    "name": "",
                    "type": "address"
                }
            ],
            "stateMutability": "view",
            "type": "function"
        },
        {
            "inputs": [
                {
                    "internalType": "address",
                    "name": "token",
                    "type": "address"
                },
                {
                    "internalType": "uint256",
                    "name": "amount",
                    "type": "uint256"
                },
                {
                    "internalType": "string",
                    "name": "txId",
                    "type": "string"
                },
                {
                    "internalType": "uint8",
                    "name": "v",
                    "type": "uint8"
                },
                {
                    "internalType": "bytes32",
                    "name": "r",
                    "type": "bytes32"
                },
                {
                    "internalType": "bytes32",
                    "name": "s",
                    "type": "bytes32"
                }
            ],
            "name": "sell",
            "outputs": [],
            "stateMutability": "payable",
            "type": "function"
        },
        {
            "inputs": [
                {
                    "internalType": "string",
                    "name": "",
                    "type": "string"
                },
                {
                    "internalType": "address",
                    "name": "",
                    "type": "address"
                }
            ],
            "name": "sellTx",
            "outputs": [
                {
                    "internalType": "uint256",
                    "name": "",
                    "type": "uint256"
                }
            ],
            "stateMutability": "view",
            "type": "function"
        },
        {
            "inputs": [],
            "name": "serviceActive",
            "outputs": [
                {
                    "internalType": "bool",
                    "name": "",
                    "type": "bool"
                }
            ],
            "stateMutability": "view",
            "type": "function"
        },
        {
            "inputs": [
                {
                    "internalType": "address",
                    "name": "router_",
                    "type": "address"
                }
            ],
            "name": "setRoutrt",
            "outputs": [],
            "stateMutability": "nonpayable",
            "type": "function"
        },
        {
            "inputs": [
                {
                    "internalType": "address",
                    "name": "",
                    "type": "address"
                }
            ],
            "name": "signers",
            "outputs": [
                {
                    "internalType": "bool",
                    "name": "",
                    "type": "bool"
                }
            ],
            "stateMutability": "view",
            "type": "function"
        },
        {
            "inputs": [
                {
                    "internalType": "address",
                    "name": "",
                    "type": "address"
                }
            ],
            "name": "supportedAssets",
            "outputs": [
                {
                    "internalType": "bool",
                    "name": "",
                    "type": "bool"
                }
            ],
            "stateMutability": "view",
            "type": "function"
        },
        {
            "inputs": [
                {
                    "internalType": "bytes4",
                    "name": "interfaceId",
                    "type": "bytes4"
                }
            ],
            "name": "supportsInterface",
            "outputs": [
                {
                    "internalType": "bool",
                    "name": "",
                    "type": "bool"
                }
            ],
            "stateMutability": "view",
            "type": "function"
        },
        {
            "inputs": [
                {
                    "internalType": "string",
                    "name": "",
                    "type": "string"
                },
                {
                    "internalType": "address",
                    "name": "",
                    "type": "address"
                }
            ],
            "name": "swapTx",
            "outputs": [
                {
                    "internalType": "uint256",
                    "name": "",
                    "type": "uint256"
                }
            ],
            "stateMutability": "view",
            "type": "function"
        },
        {
            "inputs": [
                {
                    "internalType": "address",
                    "name": "_address",
                    "type": "address"
                }
            ],
            "name": "updateAddressBook",
            "outputs": [],
            "stateMutability": "nonpayable",
            "type": "function"
        },
        {
            "inputs": [
                {
                    "internalType": "address",
                    "name": "asset",
                    "type": "address"
                }
            ],
            "name": "updateAsset",
            "outputs": [],
            "stateMutability": "nonpayable",
            "type": "function"
        },
        {
            "inputs": [],
            "name": "updateService",
            "outputs": [],
            "stateMutability": "nonpayable",
            "type": "function"
        },
        {
            "inputs": [
                {
                    "internalType": "address",
                    "name": "signer",
                    "type": "address"
                }
            ],
            "name": "updateSigner",
            "outputs": [],
            "stateMutability": "nonpayable",
            "type": "function"
        },
        {
            "inputs": [
                {
                    "internalType": "address",
                    "name": "multiwallet",
                    "type": "address"
                }
            ],
            "name": "updateSuperAdminRole",
            "outputs": [],
            "stateMutability": "nonpayable",
            "type": "function"
        }
    ],
    "bytecode": "60806040523480156200001157600080fd5b5060018055604080518082018252601681527f436861696e56657273657c52616d70536572766963650000000000000000000060209182015281517f321e5d60ec87dfe373af80c9a60864788209a9909bf892ca8977df6ee8cfcf0a918101919091524691810182905230606082015260800160408051601f1981840301815291905280516020909101206009556008805460ff19166001179055620000c7600080516020620027dc833981519152806200015a565b620000f1600080516020620027fc833981519152600080516020620027dc8339815191526200015a565b6200010c600080516020620027dc83398151915233620001a5565b62000127600080516020620027fc83398151915233620001a5565b620001537f2a287b3aa9cbc4866dd3c137fd192f1c5d81e788c6916b80b84b385305538d2333620001a5565b5062000246565b600082815260208190526040808220600101805490849055905190918391839186917fbd79b86ffe0ab8e8776151514217cd7cacd52c909f66475c3af44e129f0b00ff9190a4505050565b6000828152602081815260408083206001600160a01b038516845290915290205460ff1662000242576000828152602081815260408083206001600160a01b03851684529091529020805460ff19166001179055620002013390565b6001600160a01b0316816001600160a01b0316837f2f8788117e7eff1d82e926ec794901d17c78024a50270940304540a733656f0d60405160405180910390a45b5050565b61258680620002566000396000f3fe6080604052600436106101cd5760003560e01c8063a217fddf116100f7578063c274734e11610095578063f09e04a211610064578063f09e04a214610633578063f141b52b14610653578063f698da2514610697578063f887ea40146106ad57600080fd5b8063c274734e14610577578063d547741f14610597578063d6461274146105b7578063e58378bb146105ff57600080fd5b8063b65054cd116100d1578063b65054cd146104f0578063b69ef8a814610514578063bd81579e14610527578063bdbeb7b31461055757600080fd5b8063a217fddf14610477578063a7ecd37e1461048c578063ac6a88d2146104d057600080fd5b80635e74a96f1161016f5780638c273db31161013e5780638c273db3146103bf57806391d14854146103df5780639590cf28146103ff57806399a1fff11461042f57600080fd5b80635e74a96f1461030b578063736c0d5b1461031e57806375b238fc1461034e5780637c80cb681461038257600080fd5b806336568abe116101ab57806336568abe146102675780634105a203146102875780634460bdd6146102a15780635297fc0f146102c357600080fd5b806301ffc9a7146101d2578063248a9ca3146102075780632f2ff15d14610245575b600080fd5b3480156101de57600080fd5b506101f26101ed366004611b1e565b6106e5565b60405190151581526020015b60405180910390f35b34801561021357600080fd5b50610237610222366004611b48565b60009081526020819052604090206001015490565b6040519081526020016101fe565b34801561025157600080fd5b50610265610260366004611b76565b61071c565b005b34801561027357600080fd5b50610265610282366004611b76565b610746565b34801561029357600080fd5b506008546101f29060ff1681565b3480156102ad57600080fd5b5061023760008051602061253183398151915281565b3480156102cf57600080fd5b506102376102de366004611c5d565b81516020818401810180516007825292820194820194909420919093529091526000908152604090205481565b610265610319366004611cba565b6107c9565b34801561032a57600080fd5b506101f2610339366004611d36565b60026020526000908152604090205460ff1681565b34801561035a57600080fd5b506102377fa49807205ce4d355092ef5a8a18f56e8913cf4a201fbe287825b095693c2177581565b34801561038e57600080fd5b5061026561039d366004611d36565b600a80546001600160a01b0319166001600160a01b0392909216919091179055565b3480156103cb57600080fd5b506102656103da366004611d77565b610b57565b3480156103eb57600080fd5b506101f26103fa366004611b76565b6110eb565b34801561040b57600080fd5b506101f261041a366004611d36565b60046020526000908152604090205460ff1681565b34801561043b57600080fd5b5061023761044a366004611c5d565b81516020818401810180516005825292820194820194909420919093529091526000908152604090205481565b34801561048357600080fd5b50610237600081565b34801561049857600080fd5b506102656104a7366004611d36565b6001600160a01b03166000908152600260205260409020805460ff19811660ff90911615179055565b3480156104dc57600080fd5b506102656104eb366004611d36565b611114565b3480156104fc57600080fd5b506102656008805460ff19811660ff90911615179055565b34801561052057600080fd5b5047610237565b34801561053357600080fd5b506101f2610542366004611d36565b60036020526000908152604090205460ff1681565b34801561056357600080fd5b50610265610572366004611d36565b611144565b34801561058357600080fd5b506101f2610592366004611e8a565b611186565b3480156105a357600080fd5b506102656105b2366004611b76565b611418565b3480156105c357600080fd5b506102376105d2366004611c5d565b81516020818401810180516006825292820194820194909420919093529091526000908152604090205481565b34801561060b57600080fd5b506102377fb19546dff01e856fb3f010c267a7b1c60363cf8a4664e21cc89c26224620214e81565b34801561063f57600080fd5b5061026561064e366004611ecc565b61143d565b34801561065f57600080fd5b5061026561066e366004611d36565b6001600160a01b03166000908152600360205260409020805460ff19811660ff90911615179055565b3480156106a357600080fd5b5061023760095481565b3480156106b957600080fd5b50600a546106cd906001600160a01b031681565b6040516001600160a01b0390911681526020016101fe565b60006001600160e01b03198216637965db0b60e01b148061071657506301ffc9a760e01b6001600160e01b03198316145b92915050565b600082815260208190526040902060010154610737816117c1565b61074183836117ce565b505050565b6001600160a01b03811633146107bb5760405162461bcd60e51b815260206004820152602f60248201527f416363657373436f6e74726f6c3a2063616e206f6e6c792072656e6f756e636560448201526e103937b632b9903337b91039b2b63360891b60648201526084015b60405180910390fd5b6107c58282611852565b5050565b6107d16118b7565b60085460ff166107f35760405162461bcd60e51b81526004016107b290611f5c565b6001600160a01b03861660009081526003602052604090205460ff1661082b5760405162461bcd60e51b81526004016107b290611f93565b60068460405161083b9190611ffa565b90815260408051602092819003830190206001600160a01b038916600090815292529020541561087d5760405162461bcd60e51b81526004016107b290612016565b600085116108cd5760405162461bcd60e51b815260206004820152601e60248201527f52616d70536572766963653a20616d6f756e7420697320696e76616c6964000060448201526064016107b2565b60006009548787876040516020016108e8949392919061204d565b60408051601f198184030181528282528051602091820120600080855291840180845281905260ff88169284019290925260608301869052608083018590529092509060019060a0016020604051602081039080840390855afa158015610953573d6000803e3d6000fd5b5050604051601f1901519150506001600160a01b0381161580159061099057506001600160a01b03811660009081526002602052604090205460ff165b6109ac5760405162461bcd60e51b81526004016107b29061208e565b6001600160a01b038816610a0f5786341015610a0a5760405162461bcd60e51b815260206004820152601c60248201527f52616d70536572766963653a20616d6f756e742069732077726f6e670000000060448201526064016107b2565b610ad2565b6040516323b872dd60e01b8152336004820152306024820152604481018890526001600160a01b038916906323b872dd906064016020604051808303816000875af1158015610a62573d6000803e3d6000fd5b505050506040513d601f19601f82011682018060405250810190610a8691906120c5565b610ad25760405162461bcd60e51b815260206004820181905260248201527f52616d70536572766963653a204661696c6564205472616e7366657272696e6760448201526064016107b2565b86600687604051610ae39190611ffa565b9081526040805191829003602090810183206001600160a01b038d166000908152915220919091557f59d22f0ec9589b7a809ac3ab066e0dc96f05443380d1e565b7cc68a99de9697590610b3c908a908a908a90612113565b60405180910390a15050610b4f60018055565b505050505050565b610b5f6118b7565b60085460ff16610b815760405162461bcd60e51b81526004016107b290611f5c565b600360008860018a51610b949190612150565b81518110610ba457610ba4612163565b6020908102919091018101516001600160a01b031682528101919091526040016000205460ff16610be75760405162461bcd60e51b81526004016107b290611f93565b600784604051610bf79190611ffa565b908152602001604051809103902060008860018a51610c169190612150565b81518110610c2657610c26612163565b60200260200101516001600160a01b03166001600160a01b0316815260200190815260200160002054600014610c6e5760405162461bcd60e51b81526004016107b290612016565b60006009548989898989604051602001610c8d96959493929190612179565b60408051601f198184030181528282528051602091820120600080855291840180845281905260ff88169284019290925260608301869052608083018590529092509060019060a0016020604051602081039080840390855afa158015610cf8573d6000803e3d6000fd5b5050604051601f1901519150506001600160a01b03811615801590610d3557506001600160a01b03811660009081526002602052604090205460ff165b610d515760405162461bcd60e51b81526004016107b29061208e565b606089600081518110610d6657610d66612163565b6020908102919091010151600a5460405163095ea7b360e01b81526001600160a01b039182166004820152602481018c905291169063095ea7b3906044016020604051808303816000875af1158015610dc3573d6000803e3d6000fd5b505050506040513d601f19601f82011682018060405250810190610de791906120c5565b610e335760405162461bcd60e51b815260206004820152601c60248201527f52616d70536572766963653a204661696c656420617070726f76616c0000000060448201526064016107b2565b600a60009054906101000a90046001600160a01b03166001600160a01b031663ad5c46486040518163ffffffff1660e01b8152600401602060405180830381865afa158015610e86573d6000803e3d6000fd5b505050506040513d601f19601f82011682018060405250810190610eaa91906121f1565b6001600160a01b03168a60018c51610ec29190612150565b81518110610ed257610ed2612163565b60200260200101516001600160a01b031603610f7857600a546001600160a01b03166318cbafe58a8a8d8f610f0a42620249f061220e565b6040518663ffffffff1660e01b8152600401610f2a959493929190612221565b6000604051808303816000875af1158015610f49573d6000803e3d6000fd5b505050506040513d6000823e601f3d908101601f19168201604052610f719190810190612292565b9050611004565b600a546001600160a01b03166338ed17398a8a8d8f610f9a42620249f061220e565b6040518663ffffffff1660e01b8152600401610fba959493929190612221565b6000604051808303816000875af1158015610fd9573d6000803e3d6000fd5b505050506040513d6000823e601f3d908101601f191682016040526110019190810190612292565b90505b886007886040516110159190611ffa565b908152602001604051809103902060008c60018e516110349190612150565b8151811061104457611044612163565b60200260200101516001600160a01b03166001600160a01b03168152602001908152602001600020819055507f82fbf955e054e1eb2d30310d1f458663c12ea37f58476b487ed83247d30937508a60018c516110a09190612150565b815181106110b0576110b0612163565b60200260200101518a838e8b6040516110cd959493929190612323565b60405180910390a15050506110e160018055565b5050505050505050565b6000918252602082815260408084206001600160a01b0393909316845291905290205460ff1690565b60008051602061253183398151915261112c816117c1565b6107c5600080516020612531833981519152836117ce565b60008051602061253183398151915261115c816117c1565b506001600160a01b03166000908152600460205260409020805460ff19811660ff90911615179055565b60006000805160206125318339815191526111a0816117c1565b6001600160a01b0383166111f65760405162461bcd60e51b815260206004820152601a60248201527f52616d70536572766963653a20696e76616c696420717565727900000000000060448201526064016107b2565b6001600160a01b03831660009081526004602052604090205460ff1661126e5760405162461bcd60e51b815260206004820152602760248201527f52616d70536572766963653a2061646472657373206e6f7420696e2061646472604482015266657373426f6f6b60c81b60648201526084016107b2565b60006001600160a01b0386166112de578447101561129e5760405162461bcd60e51b81526004016107b2906123a0565b6040516001600160a01b0385169086156108fc029087906000818181858888f193505050501580156112d4573d6000803e3d6000fd5b506001905061140f565b6040516370a0823160e01b815230600482015285906001600160a01b038816906370a0823190602401602060405180830381865afa158015611324573d6000803e3d6000fd5b505050506040513d601f19601f8201168201806040525081019061134891906123d5565b10156113965760405162461bcd60e51b815260206004820181905260248201527f52616d70536572766963653a20546f6b656e206973206e6f7420656e6f75676860448201526064016107b2565b60405163a9059cbb60e01b81526001600160a01b0385811660048301526024820187905287169063a9059cbb906044016020604051808303816000875af11580156113e5573d6000803e3d6000fd5b505050506040513d601f19601f8201168201806040525081019061140991906120c5565b50600190505b95945050505050565b600082815260208190526040902060010154611433816117c1565b6107418383611852565b6114456118b7565b60085460ff166114675760405162461bcd60e51b81526004016107b290611f5c565b6001600160a01b03861660009081526003602052604090205460ff1661149f5760405162461bcd60e51b81526004016107b290611f93565b6005846040516114af9190611ffa565b90815260408051602092819003830190206001600160a01b03891660009081529252902054156114f15760405162461bcd60e51b81526004016107b290612016565b60006009548888888860405160200161150e9594939291906123ee565b60408051601f198184030181528282528051602091820120600080855291840180845281905260ff88169284019290925260608301869052608083018590529092509060019060a0016020604051602081039080840390855afa158015611579573d6000803e3d6000fd5b5050604051601f1901519150506001600160a01b038116158015906115b657506001600160a01b03811660009081526002602052604090205460ff165b6115d25760405162461bcd60e51b81526004016107b29061208e565b6001600160a01b03881661163c57864710156116005760405162461bcd60e51b81526004016107b2906123a0565b6040516001600160a01b038a169088156108fc029089906000818181858888f19350505050158015611636573d6000803e3d6000fd5b50611739565b6040516370a0823160e01b815230600482015287906001600160a01b038a16906370a0823190602401602060405180830381865afa158015611682573d6000803e3d6000fd5b505050506040513d601f19601f820116820180604052508101906116a691906123d5565b10156116c45760405162461bcd60e51b81526004016107b2906123a0565b60405163a9059cbb60e01b81526001600160a01b038a811660048301526024820189905289169063a9059cbb906044016020604051808303816000875af1158015611713573d6000803e3d6000fd5b505050506040513d601f19601f8201168201806040525081019061173791906120c5565b505b8660058760405161174a9190611ffa565b9081526040805191829003602090810183206001600160a01b038d166000908152915220919091557f0325f11443fd5933e69141c212f23e164610182b2b88a76e4120ef0fd9824f15906117a5908a908a908d908b9061243d565b60405180910390a150506117b860018055565b50505050505050565b6117cb8133611910565b50565b6117d882826110eb565b6107c5576000828152602081815260408083206001600160a01b03851684529091529020805460ff1916600117905561180e3390565b6001600160a01b0316816001600160a01b0316837f2f8788117e7eff1d82e926ec794901d17c78024a50270940304540a733656f0d60405160405180910390a45050565b61185c82826110eb565b156107c5576000828152602081815260408083206001600160a01b0385168085529252808320805460ff1916905551339285917ff6391f5c32d9c69d2a47ea670b442974b53935d1edc7fd64eb21e047a839171b9190a45050565b6002600154036119095760405162461bcd60e51b815260206004820152601f60248201527f5265656e7472616e637947756172643a207265656e7472616e742063616c6c0060448201526064016107b2565b6002600155565b61191a82826110eb565b6107c55761192781611969565b61193283602061197b565b60405160200161194392919061247a565b60408051601f198184030181529082905262461bcd60e51b82526107b2916004016124ef565b60606107166001600160a01b03831660145b6060600061198a836002612502565b61199590600261220e565b67ffffffffffffffff8111156119ad576119ad611ba6565b6040519080825280601f01601f1916602001820160405280156119d7576020820181803683370190505b509050600360fc1b816000815181106119f2576119f2612163565b60200101906001600160f81b031916908160001a905350600f60fb1b81600181518110611a2157611a21612163565b60200101906001600160f81b031916908160001a9053506000611a45846002612502565b611a5090600161220e565b90505b6001811115611ac8576f181899199a1a9b1b9c1cb0b131b232b360811b85600f1660108110611a8457611a84612163565b1a60f81b828281518110611a9a57611a9a612163565b60200101906001600160f81b031916908160001a90535060049490941c93611ac181612519565b9050611a53565b508315611b175760405162461bcd60e51b815260206004820181905260248201527f537472696e67733a20686578206c656e67746820696e73756666696369656e7460448201526064016107b2565b9392505050565b600060208284031215611b3057600080fd5b81356001600160e01b031981168114611b1757600080fd5b600060208284031215611b5a57600080fd5b5035919050565b6001600160a01b03811681146117cb57600080fd5b60008060408385031215611b8957600080fd5b823591506020830135611b9b81611b61565b809150509250929050565b634e487b7160e01b600052604160045260246000fd5b604051601f8201601f1916810167ffffffffffffffff81118282101715611be557611be5611ba6565b604052919050565b600082601f830112611bfe57600080fd5b813567ffffffffffffffff811115611c1857611c18611ba6565b611c2b601f8201601f1916602001611bbc565b818152846020838601011115611c4057600080fd5b816020850160208301376000918101602001919091529392505050565b60008060408385031215611c7057600080fd5b823567ffffffffffffffff811115611c8757600080fd5b611c9385828601611bed565b9250506020830135611b9b81611b61565b803560ff81168114611cb557600080fd5b919050565b60008060008060008060c08789031215611cd357600080fd5b8635611cde81611b61565b955060208701359450604087013567ffffffffffffffff811115611d0157600080fd5b611d0d89828a01611bed565b945050611d1c60608801611ca4565b92506080870135915060a087013590509295509295509295565b600060208284031215611d4857600080fd5b8135611b1781611b61565b600067ffffffffffffffff821115611d6d57611d6d611ba6565b5060051b60200190565b600080600080600080600080610100898b031215611d9457600080fd5b8835611d9f81611b61565b975060208981013567ffffffffffffffff80821115611dbd57600080fd5b818c0191508c601f830112611dd157600080fd5b8135611de4611ddf82611d53565b611bbc565b81815260059190911b8301840190848101908f831115611e0357600080fd5b938501935b82851015611e2a578435611e1b81611b61565b82529385019390850190611e08565b9b50505060408c0135985060608c0135975060808c0135925080831115611e5057600080fd5b5050611e5e8b828c01611bed565b945050611e6d60a08a01611ca4565b925060c0890135915060e089013590509295985092959890939650565b600080600060608486031215611e9f57600080fd5b8335611eaa81611b61565b9250602084013591506040840135611ec181611b61565b809150509250925092565b600080600080600080600060e0888a031215611ee757600080fd5b8735611ef281611b61565b96506020880135611f0281611b61565b955060408801359450606088013567ffffffffffffffff811115611f2557600080fd5b611f318a828b01611bed565b945050611f4060808901611ca4565b925060a0880135915060c0880135905092959891949750929550565b6020808252601b908201527f52616d70536572766963653a2053657276696365206973206f66660000000000604082015260600190565b60208082526023908201527f52616d70536572766963653a206173736574206973206e6f7420737570706f726040820152621d195960ea1b606082015260800190565b60005b83811015611ff1578181015183820152602001611fd9565b50506000910152565b6000825161200c818460208701611fd6565b9190910192915050565b6020808252601c908201527f52616d70536572766963653a2074784964206973206578697374656400000000604082015260600190565b8481526001600160601b03198460601b1660208201528260348201526000825161207e816054850160208701611fd6565b9190910160540195945050505050565b6020808252601e908201527f52616d70536572766963653a20696e76616c6964207369676e61747572650000604082015260600190565b6000602082840312156120d757600080fd5b81518015158114611b1757600080fd5b600081518084526120ff816020860160208601611fd6565b601f01601f19169290920160200192915050565b60018060a01b038416815282602082015260606040820152600061140f60608301846120e7565b634e487b7160e01b600052601160045260246000fd5b818103818111156107165761071661213a565b634e487b7160e01b600052603260045260246000fd5b868152600060206001600160601b03198860601b168184015260348301875182890160005b828110156121c35781516001600160a01b03168452928401929084019060010161219e565b505050868152858282015284516121e08160408401858901611fd6565b016040019998505050505050505050565b60006020828403121561220357600080fd5b8151611b1781611b61565b808201808211156107165761071661213a565b600060a082018783526020878185015260a0604085015281875180845260c086019150828901935060005b818110156122715784516001600160a01b03168352938301939183019160010161224c565b50506001600160a01b03969096166060850152505050608001529392505050565b600060208083850312156122a557600080fd5b825167ffffffffffffffff8111156122bc57600080fd5b8301601f810185136122cd57600080fd5b80516122db611ddf82611d53565b81815260059190911b820183019083810190878311156122fa57600080fd5b928401925b82841015612318578351825292840192908401906122ff565b979650505050505050565b6001600160a01b038681168252602080830187905260a060408401819052865190840181905260009287830192909160c0860190855b8181101561237557855183529483019491830191600101612359565b50508288166060870152858103608087015261239181886120e7565b9b9a5050505050505050505050565b6020808252818101527f52616d70536572766963653a206173736574206973206e6f7420656e6f756768604082015260600190565b6000602082840312156123e757600080fd5b5051919050565b85815260006001600160601b0319808760601b166020840152808660601b16603484015250836048830152825161242c816068850160208701611fd6565b919091016068019695505050505050565b6001600160a01b0385811682526020820185905283166040820152608060608201819052600090612470908301846120e7565b9695505050505050565b7f416363657373436f6e74726f6c3a206163636f756e74200000000000000000008152600083516124b2816017850160208801611fd6565b7001034b99036b4b9b9b4b733903937b6329607d1b60179184019182015283516124e3816028840160208801611fd6565b01602801949350505050565b602081526000611b1760208301846120e7565b80820281158282048414176107165761071661213a565b6000816125285761252861213a565b50600019019056fe2a287b3aa9cbc4866dd3c137fd192f1c5d81e788c6916b80b84b385305538d23a2646970667358221220e386d7e07a72dd84f393ae0645b27b7cf26bd6e09cda784aec7e6c1704bbe4c164736f6c63430008130033b19546dff01e856fb3f010c267a7b1c60363cf8a4664e21cc89c26224620214ea49807205ce4d355092ef5a8a18f56e8913cf4a201fbe287825b095693c21775",
    "sourcePath": "c:/Users/mikaz/OneDrive/My tnh/appota/Tronbox/contracts/RampService.sol",
    "compiler": {
        "name": "solc",
        "version": "0.8.19+commit.7dd6d404"
    },
    "functionHashes": {
        "ADMIN_ROLE()": "75b238fc",
        "DEFAULT_ADMIN_ROLE()": "a217fddf",
        "OWNER_ROLE()": "e58378bb",
        "SUPER_ADMIN_ROLE()": "4460bdd6",
        "addressBook(address)": "9590cf28",
        "balance()": "b69ef8a8",
        "buy(address,address,uint256,string,uint8,bytes32,bytes32)": "f09e04a2",
        "buyBySwap(address,address[],uint256,uint256,string,uint8,bytes32,bytes32)": "8c273db3",
        "buyTx(string,address)": "99a1fff1",
        "domainSeparator()": "f698da25",
        "forceTransfer(address,uint256,address)": "c274734e",
        "getRoleAdmin(bytes32)": "248a9ca3",
        "grantRole(bytes32,address)": "2f2ff15d",
        "hasRole(bytes32,address)": "91d14854",
        "renounceRole(bytes32,address)": "36568abe",
        "revokeRole(bytes32,address)": "d547741f",
        "router()": "f887ea40",
        "sell(address,uint256,string,uint8,bytes32,bytes32)": "5e74a96f",
        "sellTx(string,address)": "d6461274",
        "serviceActive()": "4105a203",
        "setRoutrt(address)": "7c80cb68",
        "signers(address)": "736c0d5b",
        "supportedAssets(address)": "bd81579e",
        "supportsInterface(bytes4)": "01ffc9a7",
        "swapTx(string,address)": "5297fc0f",
        "updateAddressBook(address)": "bdbeb7b3",
        "updateAsset(address)": "f141b52b",
        "updateService()": "b65054cd",
        "updateSigner(address)": "a7ecd37e",
        "updateSuperAdminRole(address)": "ac6a88d2"
    },
    "gasEstimates": {
        "creation": {
            "codeDepositCost": "1921200",
            "executionCost": "infinite",
            "totalCost": "infinite"
        },
        "external": {
            "ADMIN_ROLE()": "285",
            "DEFAULT_ADMIN_ROLE()": "241",
            "OWNER_ROLE()": "306",
            "SUPER_ADMIN_ROLE()": "infinite",
            "addressBook(address)": "2603",
            "balance()": "261",
            "buy(address,address,uint256,string,uint8,bytes32,bytes32)": "infinite",
            "buyBySwap(address,address[],uint256,uint256,string,uint8,bytes32,bytes32)": "infinite",
            "buyTx(string,address)": "infinite",
            "domainSeparator()": "2383",
            "forceTransfer(address,uint256,address)": "infinite",
            "getRoleAdmin(bytes32)": "2516",
            "grantRole(bytes32,address)": "infinite",
            "hasRole(bytes32,address)": "2717",
            "renounceRole(bytes32,address)": "29040",
            "revokeRole(bytes32,address)": "infinite",
            "router()": "2447",
            "sell(address,uint256,string,uint8,bytes32,bytes32)": "infinite",
            "sellTx(string,address)": "infinite",
            "serviceActive()": "2367",
            "setRoutrt(address)": "24665",
            "signers(address)": "2582",
            "supportedAssets(address)": "2603",
            "supportsInterface(bytes4)": "473",
            "swapTx(string,address)": "infinite",
            "updateAddressBook(address)": "infinite",
            "updateAsset(address)": "24673",
            "updateService()": "24416",
            "updateSigner(address)": "24675",
            "updateSuperAdminRole(address)": "infinite"
        }
    }
}